:100000000C942A000C9447000C9447000C94470071
:100010000C9447000C9447000C9447000C94470044
:100020000C9447000C9447000C9447000C94470034
:100030000C9447000C9447000C9447000C94470024
:100040000C9447000C9447000C9447000C94470014
:100050000C94470011241FBECFE5D4E0DEBFCDBF16
:1000600010E0A0E6B0E0EEEDFFE002C005900D92DA
:10007000A83FB107D9F721E0A8EFB0E001C01D9279
:10008000A530B207E1F70E9431020C94ED070C9401
:10009000000086B38F708F3051F0B09B0AC0B19BC7
:1000A0000AC0B29B0AC0B39B0AC080E0089580E0FA
:1000B000089581E0089582E0089583E0089584E042
:1000C00008951ABA87E886B980E487B908958770D9
:1000D000806487B986B1806486B9349BFECF86B1CF
:1000E000806186B98FEC97E00197F1F700C00000BE
:1000F00084B195B1089582B3806882BB88E08A9507
:10010000F1F782B38F7782BB85E88A95F1F700001B
:10011000089580FF04C095B3906195BB03C095B36B
:100120009F7E95BB81FF04C095B3906295BB03C0D1
:1001300095B39F7D95BB82FF04C095B3906495BB3A
:1001400003C095B39F7B95BB83FF04C085B38068D4
:1001500085BB089585B38F7785BB0895CF93C82F4E
:1001600082958F700E9489000E947B008C2F0E94D4
:1001700089000E947B00CF91089581E00E94AE002B
:100180008FE99FE00197F1F700C00000089580E03B
:100190000E9489008FE39CE90197F1F700C00000FD
:1001A00082B38F7B82BB82B38F7D82BB83E00E9450
:1001B00089000E947B008FE097E20197F1F700C071
:1001C00000000E947B0087EC90E00197F1F700C0EF
:1001D00000000E947B0082E00E9489000E947B0058
:1001E00088E20E94AE008CE00E94AE0086E00E9491
:1001F000AE000E94BD000895611102C0805801C088
:1002000080540E94AE00089592B3906492BB0E9405
:10021000AE0082B38F7B82BB0895CF93DF93EC0156
:1002200003C00E940401219688818111FACFDF91D9
:10023000CF910895CF93DF93CDB7DEB7EE970FB68A
:10024000F894DEBF0FBECDBF80E1E0E6F0E0DE0156
:10025000919601900D928A95E1F78FEF82BB2FEF77
:1002600031EE44E0215030404040E1F700C0000052
:1002700087E090E015C0FC01EE0FFF1F21E030E0A9
:100280002C0F3D1FE20FF31F20A122BB3FEF41EED9
:1002900024E0315040402040E1F700C000000197C9
:1002A00099234CF780E1E0E6F0E0DE015196019001
:1002B0000D928A95E1F712BA3FEF41EE84E031509A
:1002C00040408040E1F700C0000080E090E015C0B1
:1002D000FC01EE0FFF1F21E030E02C0F3D1FE20F6D
:1002E000F31F208922BB3FEF41EE24E03150404014
:1002F0002040E1F700C0000001968830910544F3EA
:1003000080E1E0E7F0E0DE01119601900D928A9520
:10031000E1F78FEF82BB3FEF41EE84E03150404088
:100320008040E1F700C0000080E090E015C0FC01D3
:10033000EE0FFF1F21E030E02C0F3D1FE20FF31FF7
:10034000208122BB3FEF41EE24E03150404020406D
:10035000E1F700C0000001968830910544F33FEFBB
:1003600041EE84E0315040408040E1F700C00000A1
:1003700087E090E015C0FC01EE0FFF1F21E030E0A8
:100380002C0F3D1FE20FF31F208122BB3FEF41EEF8
:1003900024E0315040402040E1F700C000000197C8
:1003A00099234CF78EE0E0E8F0E0DE01D196019071
:1003B0000D928A95E1F78FEF82BB3FEF41EE84E02B
:1003C000315040408040E1F700C0000080E090E004
:1003D00015C0FC01EE0FFF1F21E030E02C0F3D1F88
:1003E000E20FF31F20A922BB3FEF41EE24E0315082
:1003F00040402040E1F700C00000019687309105A1
:1004000044F322CFCF93DF93CDB7DEB764970FB617
:10041000F894DEBF0FBECDBF84E1EEE8F0E0DE0170
:10042000119601900D928A95E1F780E090E015C059
:10043000FC01EE0FFF1F21E030E02C0F3D1FE20F0B
:10044000F31F208125BB3FEF44E32CE031504040B7
:100450002040E1F700C0000001968A30910544F386
:10046000DBCF81B38FEF81BB92B392BB94B384BBDC
:1004700085B385BB1ABA87E886B980E487B90E943C
:1004800049008093F800823061F018F4813039F02F
:1004900048C1833041F0843009F42DC142C10E942B
:1004A0001A010E9402020E94C7000E94610087E0B8
:1004B0000E9467009093FF008093FE00BC01990F9B
:1004C000880B990B0E94E1032EEF33E44AEF5EE3C1
:1004D0000E946E04609301017093020180930301F6
:1004E0009093040120E030E040E052E40E9469046F
:1004F00018160CF053C00E94BD0060E080E00E941E
:10050000FC0082EA90E00E940D0160E086E00E941B
:10051000FC001F928FED8F93609101017091020199
:1005200080910301909104010E94A9037F936F932E
:1005300089EA90E09F938F9389EF90E09F938F9348
:100540000E94030589EF90E00E940D0161E081E0C7
:100550000E94FC0080EB90E00E940D0182B3846059
:1005600082BB2FEF80E792E0215080409040E1F77E
:1005700000C0000082B38B7F82BB2FEF80E792E048
:10058000215080409040E1F700C000008DB79EB739
:1005900008960FB6F8949EBF0FBE8DBFC0900101A4
:1005A000D0900201E0900301F090040120E030E0DF
:1005B00040E052E4C701B6010E94A40388230CF076
:1005C00045C020E030E040E251E4C701B6010E949E
:1005D00069041816DCF50E94BD0060E080E00E940E
:1005E000FC0082EA90E00E940D0160E086E00E943B
:1005F000FC001F928FED8F936091010170910201B9
:1006000080910301909104010E94A9037F936F934D
:1006100089EA90E09F938F9389EF90E09F938F9367
:100620000E94030589EF90E00E940D0161E080E0E7
:100630000E94FC008FEB90E00E940D018DB79EB7E9
:1006400008960FB6F8949EBF0FBE8DBF6091010152
:1006500070910201809103019091040120E030E04B
:1006600040E251E40E94A4038823DCF50E94BD000F
:1006700060E080E00E94FC0082EA90E00E940D01B0
:1006800060E086E00E94FC001F928FED8F936091E6
:1006900001017091020180910301909104010E9477
:1006A000A9037F936F9389EA90E09F938F9389EFDB
:1006B00090E09F938F930E94030589EF90E00E9442
:1006C0000D0161E081E00E94FC0080ED90E00E945D
:1006D0000D018DB79EB708960FB6F8949EBF0FBE5A
:1006E0008DBF9FEF24E38CE0915020408040E1F7E4
:1006F00000C00000DCCE8FEF82BB9FE728E381E0E3
:10070000915020408040E1F700C0000012BA9FE7FE
:1007100028E381E0915020408040E1F700C00000D4
:10072000AECE0E94C70060E081E00E94FC008FED29
:1007300090E00E940D0161E082E00E94FC008AEEE0
:1007400090E00E940D019BCE0E941C0408F481E001
:1007500008950E94B0036894B1110C946304089545
:100760000E94480488F09F5798F0B92F9927B751F5
:10077000B0F0E1F0660F771F881F991F1AF0BA9545
:10078000C9F714C0B13091F00E946204B1E008953D
:100790000C946204672F782F8827B85F39F0B93F2F
:1007A000CCF3869577956795B395D9F73EF49095F8
:1007B0008095709561957F4F8F4F9F4F0895E89476
:1007C00009C097FB3EF490958095709561957F4F99
:1007D0008F4F9F4F9923A9F0F92F96E9BB27939547
:1007E000F695879577956795B795F111F8CFFAF457
:1007F000BB0F11F460FF1BC06F5F7F4F8F4F9F4F88
:1008000016C0882311F096E911C0772321F09EE8E5
:10081000872F762F05C0662371F096E8862F70E04B
:1008200060E02AF09A95660F771F881FDAF7880F25
:100830009695879597F90895990F0008550FAA0B7B
:10084000E0E8FEEF16161706E807F907C0F01216E3
:100850001306E407F50798F0621B730B840B950BE6
:1008600039F40A2661F0232B242B252B21F408953B
:100870000A2609F4A140A6958FEF811D811D0895D8
:1008800057FD9058440F551F59F05F3F71F0479541
:10089000880F97FB991F61F09F3F79F08795089526
:1008A000121613061406551FF2CF4695F1DF08C045
:1008B000161617061806991FF1CF86957105610562
:1008C00008940895E894BB2766277727CB0197F90A
:1008D00008950E941C0408F48FEF08950E9481047B
:1008E0000C94F2040E94E40438F00E94EB0420F01F
:1008F000952311F00C94DB040C94E10411240C9466
:1009000063040E94400470F3959FC1F3950F50E07B
:10091000551F629FF001729FBB27F00DB11D639FB1
:10092000AA27F00DB11DAA1F649F6627B00DA11D57
:10093000661F829F2227B00DA11D621F739FB00DFD
:10094000A11D621F839FA00D611D221F749F33276D
:10095000A00D611D231F849F600D211D822F762F06
:100960006A2F11249F5750409AF0F1F088234AF0E3
:10097000EE0FFF1FBB1F661F771F881F915050404F
:10098000A9F79E3F510580F00C94DB040C9463049E
:100990005F3FE4F3983ED4F3869577956795B795D6
:1009A000F795E7959F5FC1F7FE2B880F911D9695F0
:1009B000879597F9089597F99F6780E870E060E060
:1009C00008959FEF80EC089500240A9416161706E8
:1009D00018060906089500240A9412161306140630
:1009E00005060895092E0394000C11F4882352F093
:1009F000BB0F40F4BF2B11F460FF04C06F5F7F4F4B
:100A00008F4F9F4F0895AEE0B0E0E9E0F5E00C9421
:100A1000C4070D891E8986E08C831A8309838FEFB2
:100A20009FE79E838D83AE01475E5F4F6F89788D10
:100A3000CE0101960E942505EF81F885E00FF11F98
:100A400010822E96E4E00C94E007ABE0B0E0EBE21D
:100A5000F5E00C94B6076C017B018A01FC0117825A
:100A60001682838181FFCCC1CE0101963C01F60143
:100A70009381F70193FD859193FF81917F018823F5
:100A800009F4BAC1853239F493FD859193FF8191C0
:100A90007F01853229F4B60190E00E941C07E7CF60
:100AA000912C212C312CFFE1F315D8F08B3279F009
:100AB00038F4803279F08332A1F4232D20611DC0F7
:100AC0008D3261F0803369F4232D216016C0832DAF
:100AD0008260382EE32DE4603E2E2AC0F32DF860AC
:100AE0001DC037FC2DC020ED280F2A3040F08E327B
:100AF000B9F436FC81C1232D2064322E19C036FE94
:100B000006C08AE0989E200D1124922E11C0EAE0C2
:100B10002E9E200D1124222EF32DF0623F2E08C0B0
:100B20008C3621F4832D8068382E02C0883641F43B
:100B3000F70193FD859193FF81917F018111B3CFDF
:100B4000982F9F7D9554933028F40C5F1F4F9FE39F
:100B500099830DC0833631F0833771F0833509F006
:100B600059C021C0F801808189830E5F1F4F8824FE
:100B70008394912C530113C02801F2E04F0E511CB5
:100B8000F801A080B18036FE03C0692D70E002C07C
:100B90006FEF7FEFC5010E9411074C018201F32D19
:100BA000FF773F2E16C0280122E0420E511CF801AB
:100BB000A080B18036FE03C0692D70E002C06FEFE7
:100BC0007FEFC5010E9406074C01F32DF0683F2E10
:100BD000820133FC1BC0822D90E088169906B0F488
:100BE000B60180E290E00E941C072A94F4CFF50140
:100BF00037FC859137FE81915F01B60190E00E943C
:100C00001C0721102A9421E0821A91088114910472
:100C100071F7E8C0843611F0893641F5F80137FEE6
:100C200007C060817181828193810C5F1F4F08C072
:100C300060817181072E000C880B990B0E5F1F4F8E
:100C4000F32DFF763F2E97FF09C090958095709504
:100C500061957F4F8F4F9F4FF0683F2E2AE030E025
:100C6000A3010E945807882E861845C0853731F4A5
:100C7000232D2F7EB22E2AE030E025C0932D997FC0
:100C8000B92E8F36C1F018F4883579F0B5C08037A9
:100C900019F0883721F0B0C0E92FE061BE2EB4FE14
:100CA0000DC0FB2DF460BF2E09C034FE0AC0292FF1
:100CB0002660B22E06C028E030E005C020E130E01A
:100CC00002C020E132E0F801B7FE07C06081718107
:100CD000828193810C5F1F4F06C06081718180E02B
:100CE00090E00E5F1F4FA3010E945807882E8618C0
:100CF000FB2DFF773F2E36FE0DC0232D2E7FA22E1B
:100D0000891458F434FE0BC032FC09C0832D8E7E4A
:100D1000A82E05C0B82CA32C03C0B82C01C0B92C38
:100D2000A4FE0FC0FE01E80DF11D8081803321F487
:100D30009A2D997EA92E09C0A2FE06C0B394B39441
:100D400004C08A2D867809F0B394A3FC11C0A0FEDC
:100D500006C0B21488F4280C922C9B180EC0B21452
:100D600060F4B60180E290E00E941C07B394F7CFD4
:100D7000B21418F42B1802C0982C212CA4FE10C019
:100D8000B60180E390E00E941C07A2FE17C0A1FC00
:100D900003C088E790E002C088E590E0B6010CC08F
:100DA0008A2D867859F0A1FE02C08BE201C080E254
:100DB000A7FC8DE2B60190E00E941C07891438F46C
:100DC000B60180E390E00E941C079A94F7CF8A94C2
:100DD000F301E80DF11D8081B60190E00E941C072F
:100DE0008110F5CF222009F442CEB60180E290E0D6
:100DF0000E941C072A94F6CFF6018681978102C0D3
:100E00008FEF9FEF2B96E2E10C94D207FC01059047
:100E1000615070400110D8F7809590958E0F9F1FFC
:100E20000895FC016150704001900110D8F7809541
:100E300090958E0F9F1F08950F931F93CF93DF936D
:100E4000FB01238121FD03C08FEF9FEF2CC022FF08
:100E500016C046815781248135814217530744F4D7
:100E6000A081B1819D012F5F3F4F318320838C93FF
:100E7000268137812F5F3F4F3783268314C08B0134
:100E8000EC01FB010084F185E02D0995892BE1F649
:100E9000D80116968D919C911797019617969C9361
:100EA0008E931697CE01DF91CF911F910F910895E8
:100EB000FA01AA27283051F1203181F1E8946F938B
:100EC0006E7F6E5F7F4F8F4F9F4FAF4FB1E03ED031
:100ED000B4E03CD0670F781F891F9A1FA11D680FCF
:100EE000791F8A1F911DA11D6A0F711D811D911D02
:100EF000A11D20D009F468943F912AE0269F112477
:100F00003019305D3193DEF6CF010895462F4770DA
:100F1000405D4193B3E00FD0C9F7F6CF462F4F7035
:100F2000405D4A3318F0495D31FD4052419302D093
:100F3000A9F7EACFB4E0A695979587957795679539
:100F4000BA95C9F700976105710508959B01AC0139
:100F50000A2E06945795479537952795BA95C9F760
:100F6000620F731F841F951FA01D08952F923F923B
:100F70004F925F926F927F928F929F92AF92BF92A9
:100F8000CF92DF92EF92FF920F931F93CF93DF9355
:100F9000CDB7DEB7CA1BDB0B0FB6F894DEBF0FBEB2
:100FA000CDBF09942A88398848885F846E847D84FF
:100FB0008C849B84AA84B984C884DF80EE80FD8001
:100FC0000C811B81AA81B981CE0FD11D0FB6F89477
:0E0FD000DEBF0FBECDBFED010895F894FFCF38
:100FDE000100030007000F001F003F007F00FF000D
:100FEE00FE00FD00FB00F700EF00DF00BF007F00FA
:100FFE007E00BD00DB00E700DB00BD007E00880048
:10100E00EB004C0049002B0019001800CB00080023
:10101E00090054656D703A20002564256343200055
:10102E004974206973207665727920686F7400495F
:10103E0074277320636F6D666F727461626C6500E6
:10104E00497420697320636F6C64206E6F77004C57
:10105E00655669657448756E67004D535356203258
:08106E00303231333934320015
:00000001FF
