S01600004156525F4B69745F546573745F322E737265630E
S11300000C9434000C943E000C943E000C943E007E
S11300100C943E000C943E000C943E000C943E0064
S11300200C943E000C943E000C943E000C943E0054
S11300300C943E000C943E000C943E000C943E0044
S11300400C943E000C943E000C943E000C943E0034
S11300500C943E005500570059005B005D005F00A2
S1130060610063006600650011241FBECFE5D4E083
S1130070DEBFCDBF0E947C000C9486000C9400006F
S113008081B38FEF81BB92B382BB94B384BB95B32E
S113009085BB089525B3287090E08A309105B0F4AB
S11300A0FC01E65DFF4F0C94800020680FC0236EB6
S11300B00DC024640BC0216409C0236207C0216100
S11300C005C0206103C0236C01C0216025BB0895D5
S11300D0C0E0DFEFD2BBDD2311F0DD0F01C0DFEFA5
S11300E08C2F0E944A0095B388E0892785BBCF5F97
S11300F0CA3080F3C0E0EECF0E9440000E94680046
S1130100EE0FFF1F0590F491E02D0994F894FFCFB2
S9030000FC
