:100000000C9434000C9446000C9446000C9446006A
:100010000C9446000C9446000C9446000C94460048
:100020000C9446000C9446000C9446000C94460038
:100030000C9446000C9446000C9446000C94460028
:100040000C9446000C9446000C9446000C94460018
:100050000C9446005D005F0061006300650067006E
:1000600069006B006E006D0011241FBECFE5D4E067
:10007000DEBFCDBF20E0A0E6B0E001C01D92A136FA
:10008000B207E1F70E94AA000C94B4000C9400009F
:1000900081B38FEF81BB92B382BB94B384BB95B322
:1000A00085BB089525B3287090E08A309105B0F49F
:1000B000FC01E65DFF4F0C94AE0020680FC0236E7C
:1000C0000DC024640BC0216409C0236207C02161F4
:1000D00005C0206103C0236C01C0216025BB0895C9
:1000E00086B38F708F3051F0B09B0AC0B19B0AC0AD
:1000F000B29B0AC0B39B0AC080E0089580E00895D7
:1001000081E0089582E0089583E0089584E00895F1
:100110000E947000809360000E94520080916000F5
:10012000823061F018F4813031F011C0833049F031
:10013000843051F00CC08CEF82BBEACF83EF82BBDE
:10014000E7CF8FEC82BBE4CF8FE382BBE1CF8FEFB1
:1001500082BBDECF0E9448000E948800EE0FFF1F86
:0C0160000590F491E02D0994F894FFCF75
:00000001FF
