:100000000C942A000C9434000C9434000C943400AA
:100010000C9434000C9434000C9434000C94340090
:100020000C9434000C9434000C9434000C94340080
:100030000C9434000C9434000C9434000C94340070
:100040000C9434000C9434000C9434000C94340060
:100050000C94340011241FBECFE5D4E0DEBFCDBF29
:100060000E9436000C9443000C94000081B39FEF73
:1000700091BB82B38A6A82BB84B394BB85B385BBD0
:0A00800080E090E00895F894FFCFAF
:00000001FF
