S01700004156525F4B69745F54657374205F342E73726563EB
S11300000C942A000C9447000C9447000C9447006D
S11300100C9447000C9447000C9447000C94470040
S11300200C9447000C9447000C9447000C94470030
S11300300C9447000C9447000C9447000C94470020
S11300400C9447000C9447000C9447000C94470010
S11300500C94470011241FBECFE5D4E0DEBFCDBF12
S113006010E0A0E6B0E0E4E2F4E002C005900D92F6
S1130070A63BB107D9F720E0A6EBB0E001C01D9282
S1130080A63BB207E1F70E940C020C9410020C94F8
S1130090000007C0E7ECF0E03197F1F700C0000082
S11300A001970097B9F70895CF93C82F85B38F7040
S11300B085BB82B38F7B82BB82B3806882BB95B3DE
S11300C08C2F807F982B95BB95B3892B85BB82B3EE
S11300D08F7782BB81E090E00E94490085B38F70E6
S11300E085BB82B38F7B82BB82B3806882BB25B31E
S11300F030E1C39FC0011124922F982B95BB95B377
S1130100892B85BB82B38F7782BB82E090E00E940B
S11301104900CF910895823029F480EC860F0E9423
S11301205400089580E8860F0E9454000895CF93E8
S1130130C82F85B38F7085BB82B3806482BB82B3C2
S1130140806882BB95B38C2F807F982B95BB95B329
S1130150892B85BB82B38F7782BB81E090E00E94BC
S1130160490085B38F7085BB82B3806482BB82B340
S1130170806882BB25B330E1C39FC0011124922F54
S1130180982B95BB95B3892B85BB82B38F7782BBA4
S113019082E090E00E944900CF910895CF93DF93CD
S11301A0EC0103C00E949700219688818111FACF47
S11301B0DF91CF91089581E00E94540089E290E09C
S11301C00E944900089582E00E94540089E290E070
S11301D00E9449000895CF93DF93811102C0DCE0AF
S11301E001C0DEE06111D16080E991E00E94490024
S11301F081B3806881BB81B3806481BB84B3806F29
S113020084BB85B38F7085BBC0E014C082B38F7B81
S113021082BB82B3806882BB85B3806385BB85B3B0
S1130220806385BB82B38F7782BB82E090E00E94BB
S11302304900CF5FC33050F385B38F7085BB82B361
S11302408F7B82BB82B3806882BB85B3806285BBAF
S113025085B3806285BB82B38F7782BB89E290E0ED
S11302600E94490088E20E94540089E290E00E94C2
S113027049008D2F0E94540089E290E00E944900B9
S11302800E94DB000E94E300DF91CF91089590BDAE
S113029089B98AB188618AB98AB18B7F8AB9663093
S11302A069F018F4653031F010C0673029F0693016
S11302B039F00BC080E80AC084E808C082E806C0B0
S11302C08AB184608AB986E801C086E8413009F4BD
S11302D08063423009F48062223009F4886080BD72
S11302E008955D9BFECF8CB90895CF93DF93EC0105
S11302F003C00E947101219688818111FACFDF9198
S1130300CF91089581B38FEF81BB92B382BB94B335
S113031084BB95B385BB1ABA1BBA86B1806886B90B
S113032086B1876086B987B1806487B987B1807EDA
S113033087B9089507C08FEC97E00197F1F700C0E3
S11303400000C9019C0121503109892BA1F70895AE
S1130350CF93DF93D62F882339F0C0E00DC08CE112
S11303600E945400CF5F01C0C0E0CD17C0F306C0A7
S113037088E10E945400CF5FCD17D0F3DF91CF9175
S1130380089521E040E068E083E390E00E944701A3
S113039081B3806281BB82B38F7D82BB85B38F6062
S11303A085BB60E080E00E94EB0060E081E00E9499
S11303B08B008FE790E00E94CE0060E082E00E9414
S11303C08B0082EA90E00E94CE0088EE93E00E94C7
S11303D09A018FE790E00E9475018DE00E947101FF
S11303E08AE00E94710182EA90E00E9475018DE02A
S11303F00E9471018AE00E9471018DE00E947101E6
S11304008AE00E94710188EE93E00E949A0161E003
S113041081E00E94A801DDCF0E9482010E94C101F7
S1070420F894FFCF7A
S113042454657374204144432026204C43440041C2
S11304344443303A20303030302F31303234004CA1
S11304446520566965742048756E672C20323032F5
S113045431333934322C20445430392096204B36ED
S113046436005669656E20445456542C2044484240
S10904744B20484E00007D
S9030000FC
